{
  "contractName": "CredToken",
  "abi": [
    {
      "inputs": [
        {
          "internalType": "address",
          "name": "_daiAddress",
          "type": "address"
        }
      ],
      "stateMutability": "nonpayable",
      "type": "constructor"
    },
    {
      "anonymous": false,
      "inputs": [
        {
          "indexed": true,
          "internalType": "address",
          "name": "owner",
          "type": "address"
        },
        {
          "indexed": true,
          "internalType": "address",
          "name": "spender",
          "type": "address"
        },
        {
          "indexed": false,
          "internalType": "uint256",
          "name": "value",
          "type": "uint256"
        }
      ],
      "name": "Approval",
      "type": "event"
    },
    {
      "anonymous": false,
      "inputs": [
        {
          "indexed": false,
          "internalType": "uint256",
          "name": "updatedUserBal",
          "type": "uint256"
        },
        {
          "indexed": false,
          "internalType": "uint256",
          "name": "updatedAdminBal",
          "type": "uint256"
        },
        {
          "indexed": false,
          "internalType": "uint256",
          "name": "updatedContractBal",
          "type": "uint256"
        }
      ],
      "name": "LogBalances",
      "type": "event"
    },
    {
      "anonymous": false,
      "inputs": [
        {
          "indexed": false,
          "internalType": "bool",
          "name": "status",
          "type": "bool"
        },
        {
          "indexed": false,
          "internalType": "address",
          "name": "userAddress",
          "type": "address"
        },
        {
          "indexed": false,
          "internalType": "uint256",
          "name": "monthlyPayment",
          "type": "uint256"
        }
      ],
      "name": "LogPaymentStatus",
      "type": "event"
    },
    {
      "anonymous": false,
      "inputs": [
        {
          "indexed": true,
          "internalType": "uint24",
          "name": "status",
          "type": "uint24"
        }
      ],
      "name": "LogStatus",
      "type": "event"
    },
    {
      "anonymous": false,
      "inputs": [
        {
          "indexed": false,
          "internalType": "bool",
          "name": "transferStatus",
          "type": "bool"
        }
      ],
      "name": "LogTransferStatus",
      "type": "event"
    },
    {
      "anonymous": false,
      "inputs": [
        {
          "indexed": true,
          "internalType": "address",
          "name": "from",
          "type": "address"
        },
        {
          "indexed": true,
          "internalType": "address",
          "name": "to",
          "type": "address"
        },
        {
          "indexed": false,
          "internalType": "uint256",
          "name": "value",
          "type": "uint256"
        }
      ],
      "name": "Transfer",
      "type": "event"
    },
    {
      "stateMutability": "nonpayable",
      "type": "fallback"
    },
    {
      "inputs": [
        {
          "internalType": "address",
          "name": "owner",
          "type": "address"
        },
        {
          "internalType": "address",
          "name": "spender",
          "type": "address"
        }
      ],
      "name": "allowance",
      "outputs": [
        {
          "internalType": "uint256",
          "name": "",
          "type": "uint256"
        }
      ],
      "stateMutability": "view",
      "type": "function",
      "constant": true
    },
    {
      "inputs": [
        {
          "internalType": "address",
          "name": "spender",
          "type": "address"
        },
        {
          "internalType": "uint256",
          "name": "amount",
          "type": "uint256"
        }
      ],
      "name": "approve",
      "outputs": [
        {
          "internalType": "bool",
          "name": "",
          "type": "bool"
        }
      ],
      "stateMutability": "nonpayable",
      "type": "function"
    },
    {
      "inputs": [
        {
          "internalType": "address",
          "name": "account",
          "type": "address"
        }
      ],
      "name": "balanceOf",
      "outputs": [
        {
          "internalType": "uint256",
          "name": "",
          "type": "uint256"
        }
      ],
      "stateMutability": "view",
      "type": "function",
      "constant": true
    },
    {
      "inputs": [],
      "name": "daiAddress",
      "outputs": [
        {
          "internalType": "address",
          "name": "",
          "type": "address"
        }
      ],
      "stateMutability": "view",
      "type": "function",
      "constant": true
    },
    {
      "inputs": [],
      "name": "decimals",
      "outputs": [
        {
          "internalType": "uint8",
          "name": "",
          "type": "uint8"
        }
      ],
      "stateMutability": "view",
      "type": "function",
      "constant": true
    },
    {
      "inputs": [
        {
          "internalType": "address",
          "name": "spender",
          "type": "address"
        },
        {
          "internalType": "uint256",
          "name": "subtractedValue",
          "type": "uint256"
        }
      ],
      "name": "decreaseAllowance",
      "outputs": [
        {
          "internalType": "bool",
          "name": "",
          "type": "bool"
        }
      ],
      "stateMutability": "nonpayable",
      "type": "function"
    },
    {
      "inputs": [
        {
          "internalType": "address",
          "name": "spender",
          "type": "address"
        },
        {
          "internalType": "uint256",
          "name": "addedValue",
          "type": "uint256"
        }
      ],
      "name": "increaseAllowance",
      "outputs": [
        {
          "internalType": "bool",
          "name": "",
          "type": "bool"
        }
      ],
      "stateMutability": "nonpayable",
      "type": "function"
    },
    {
      "inputs": [],
      "name": "isSetLoanContract",
      "outputs": [
        {
          "internalType": "bool",
          "name": "",
          "type": "bool"
        }
      ],
      "stateMutability": "view",
      "type": "function",
      "constant": true
    },
    {
      "inputs": [],
      "name": "isSetShareHolderContract",
      "outputs": [
        {
          "internalType": "bool",
          "name": "",
          "type": "bool"
        }
      ],
      "stateMutability": "view",
      "type": "function",
      "constant": true
    },
    {
      "inputs": [],
      "name": "name",
      "outputs": [
        {
          "internalType": "string",
          "name": "",
          "type": "string"
        }
      ],
      "stateMutability": "view",
      "type": "function",
      "constant": true
    },
    {
      "inputs": [],
      "name": "owner",
      "outputs": [
        {
          "internalType": "address",
          "name": "",
          "type": "address"
        }
      ],
      "stateMutability": "view",
      "type": "function",
      "constant": true
    },
    {
      "inputs": [],
      "name": "symbol",
      "outputs": [
        {
          "internalType": "string",
          "name": "",
          "type": "string"
        }
      ],
      "stateMutability": "view",
      "type": "function",
      "constant": true
    },
    {
      "inputs": [],
      "name": "totalSupply",
      "outputs": [
        {
          "internalType": "uint256",
          "name": "",
          "type": "uint256"
        }
      ],
      "stateMutability": "view",
      "type": "function",
      "constant": true
    },
    {
      "inputs": [
        {
          "internalType": "address",
          "name": "recipient",
          "type": "address"
        },
        {
          "internalType": "uint256",
          "name": "amount",
          "type": "uint256"
        }
      ],
      "name": "transfer",
      "outputs": [
        {
          "internalType": "bool",
          "name": "",
          "type": "bool"
        }
      ],
      "stateMutability": "nonpayable",
      "type": "function"
    },
    {
      "inputs": [
        {
          "internalType": "address",
          "name": "sender",
          "type": "address"
        },
        {
          "internalType": "address",
          "name": "recipient",
          "type": "address"
        },
        {
          "internalType": "uint256",
          "name": "amount",
          "type": "uint256"
        }
      ],
      "name": "transferFrom",
      "outputs": [
        {
          "internalType": "bool",
          "name": "",
          "type": "bool"
        }
      ],
      "stateMutability": "nonpayable",
      "type": "function"
    },
    {
      "inputs": [],
      "name": "version",
      "outputs": [
        {
          "internalType": "string",
          "name": "",
          "type": "string"
        }
      ],
      "stateMutability": "view",
      "type": "function",
      "constant": true
    },
    {
      "stateMutability": "payable",
      "type": "receive",
      "payable": true
    },
    {
      "inputs": [],
      "name": "getStatus",
      "outputs": [
        {
          "internalType": "uint24",
          "name": "",
          "type": "uint24"
        }
      ],
      "stateMutability": "nonpayable",
      "type": "function"
    },
    {
      "inputs": [
        {
          "internalType": "bytes32",
          "name": "_credId",
          "type": "bytes32"
        },
        {
          "internalType": "bool",
          "name": "_yesNo",
          "type": "bool"
        }
      ],
      "name": "fundLoan",
      "outputs": [
        {
          "internalType": "bool",
          "name": "_fundstatus",
          "type": "bool"
        }
      ],
      "stateMutability": "nonpayable",
      "type": "function"
    },
    {
      "inputs": [
        {
          "internalType": "address",
          "name": "_loanContractaddress",
          "type": "address"
        }
      ],
      "name": "setLoanContract",
      "outputs": [],
      "stateMutability": "nonpayable",
      "type": "function"
    },
    {
      "inputs": [
        {
          "internalType": "address",
          "name": "_address",
          "type": "address"
        }
      ],
      "name": "setShareHolderContract",
      "outputs": [],
      "stateMutability": "nonpayable",
      "type": "function"
    },
    {
      "inputs": [
        {
          "internalType": "uint256",
          "name": "value",
          "type": "uint256"
        }
      ],
      "name": "buyToken",
      "outputs": [
        {
          "internalType": "bool",
          "name": "",
          "type": "bool"
        }
      ],
      "stateMutability": "nonpayable",
      "type": "function"
    },
    {
      "inputs": [
        {
          "internalType": "uint256",
          "name": "value",
          "type": "uint256"
        }
      ],
      "name": "withdrawToken",
      "outputs": [
        {
          "internalType": "bool",
          "name": "",
          "type": "bool"
        }
      ],
      "stateMutability": "nonpayable",
      "type": "function"
    },
    {
      "inputs": [
        {
          "internalType": "address",
          "name": "_spender",
          "type": "address"
        },
        {
          "internalType": "uint256",
          "name": "_value",
          "type": "uint256"
        },
        {
          "internalType": "bytes",
          "name": "_extraData",
          "type": "bytes"
        }
      ],
      "name": "approveAndCall",
      "outputs": [
        {
          "internalType": "bool",
          "name": "",
          "type": "bool"
        }
      ],
      "stateMutability": "nonpayable",
      "type": "function"
    },
    {
      "inputs": [],
      "name": "makePayment",
      "outputs": [],
      "stateMutability": "nonpayable",
      "type": "function"
    }
  ],
  "bytecode": "0x60806040526040518060400160405280600481526020017f48312e30000000000000000000000000000000000000000000000000000000008152506006908051906020019062000051929190620001d7565b503480156200005f57600080fd5b5060405162003ec738038062003ec7833981810160405260208110156200008557600080fd5b81019080805190602001909291905050506040518060400160405280600a81526020017f4352454420544f4b454e0000000000000000000000000000000000000000000081525060039080519060200190620000e3929190620001d7565b506000600460006101000a81548160ff021916908360ff1602179055506040518060400160405280600481526020017f4352454400000000000000000000000000000000000000000000000000000000815250600590805190602001906200014d929190620001d7565b5033600760006101000a81548173ffffffffffffffffffffffffffffffffffffffff021916908373ffffffffffffffffffffffffffffffffffffffff16021790555080600960006101000a81548173ffffffffffffffffffffffffffffffffffffffff021916908373ffffffffffffffffffffffffffffffffffffffff1602179055505062000286565b828054600181600116156101000203166002900490600052602060002090601f016020900481019282601f106200021a57805160ff19168380011785556200024b565b828001600101855582156200024b579182015b828111156200024a5782518255916020019190600101906200022d565b5b5090506200025a91906200025e565b5090565b6200028391905b808211156200027f57600081600090555060010162000265565b5090565b90565b613c3180620002966000396000f3fe60806040526004361061014f5760003560e01c806354fd4d50116100b6578063a9059cbb1161006f578063a9059cbb14610822578063cae9ca5114610895578063d8d797001461099f578063dd62ed3e146109b6578063df8e0aef14610a3b578063e0aa3e4114610a9a57610159565b806354fd4d50146105a457806370a08231146106345780637f0d7380146106995780638da5cb5b146106c857806395d89b411461071f578063a457c2d7146107af57610159565b8063313ce56711610108578063313ce567146103d657806331d388061461040757806333ad2c701461045857806339509351146104a95780634e69d5601461051c57806350baa6221461055157610159565b806306fdde031461016b578063095ea7b3146101fb57806318160ddd1461026e57806323b872dd146102995780632c3872751461032c5780632d296bf11461038357610159565b3661015957600080fd5b34801561016557600080fd5b50600080fd5b34801561017757600080fd5b50610180610ac9565b6040518080602001828103825283818151815260200191508051906020019080838360005b838110156101c05780820151818401526020810190506101a5565b50505050905090810190601f1680156101ed5780820380516001836020036101000a031916815260200191505b509250505060405180910390f35b34801561020757600080fd5b506102546004803603604081101561021e57600080fd5b81019080803573ffffffffffffffffffffffffffffffffffffffff16906020019092919080359060200190929190505050610b67565b604051808215151515815260200191505060405180910390f35b34801561027a57600080fd5b50610283610b85565b6040518082815260200191505060405180910390f35b3480156102a557600080fd5b50610312600480360360608110156102bc57600080fd5b81019080803573ffffffffffffffffffffffffffffffffffffffff169060200190929190803573ffffffffffffffffffffffffffffffffffffffff16906020019092919080359060200190929190505050610b8f565b604051808215151515815260200191505060405180910390f35b34801561033857600080fd5b50610341610c68565b604051808273ffffffffffffffffffffffffffffffffffffffff1673ffffffffffffffffffffffffffffffffffffffff16815260200191505060405180910390f35b34801561038f57600080fd5b506103bc600480360360208110156103a657600080fd5b8101908080359060200190929190505050610c8e565b604051808215151515815260200191505060405180910390f35b3480156103e257600080fd5b506103eb6112ef565b604051808260ff1660ff16815260200191505060405180910390f35b34801561041357600080fd5b506104566004803603602081101561042a57600080fd5b81019080803573ffffffffffffffffffffffffffffffffffffffff169060200190929190505050611302565b005b34801561046457600080fd5b506104a76004803603602081101561047b57600080fd5b81019080803573ffffffffffffffffffffffffffffffffffffffff1690602001909291905050506114b6565b005b3480156104b557600080fd5b50610502600480360360408110156104cc57600080fd5b81019080803573ffffffffffffffffffffffffffffffffffffffff1690602001909291908035906020019092919050505061164d565b604051808215151515815260200191505060405180910390f35b34801561052857600080fd5b50610531611700565b604051808262ffffff1662ffffff16815260200191505060405180910390f35b34801561055d57600080fd5b5061058a6004803603602081101561057457600080fd5b81019080803590602001909291905050506117e7565b604051808215151515815260200191505060405180910390f35b3480156105b057600080fd5b506105b9611c0f565b6040518080602001828103825283818151815260200191508051906020019080838360005b838110156105f95780820151818401526020810190506105de565b50505050905090810190601f1680156106265780820380516001836020036101000a031916815260200191505b509250505060405180910390f35b34801561064057600080fd5b506106836004803603602081101561065757600080fd5b81019080803573ffffffffffffffffffffffffffffffffffffffff169060200190929190505050611cad565b6040518082815260200191505060405180910390f35b3480156106a557600080fd5b506106ae611cf5565b604051808215151515815260200191505060405180910390f35b3480156106d457600080fd5b506106dd611d08565b604051808273ffffffffffffffffffffffffffffffffffffffff1673ffffffffffffffffffffffffffffffffffffffff16815260200191505060405180910390f35b34801561072b57600080fd5b50610734611d2e565b6040518080602001828103825283818151815260200191508051906020019080838360005b83811015610774578082015181840152602081019050610759565b50505050905090810190601f1680156107a15780820380516001836020036101000a031916815260200191505b509250505060405180910390f35b3480156107bb57600080fd5b50610808600480360360408110156107d257600080fd5b81019080803573ffffffffffffffffffffffffffffffffffffffff16906020019092919080359060200190929190505050611dcc565b604051808215151515815260200191505060405180910390f35b34801561082e57600080fd5b5061087b6004803603604081101561084557600080fd5b81019080803573ffffffffffffffffffffffffffffffffffffffff16906020019092919080359060200190929190505050611e99565b604051808215151515815260200191505060405180910390f35b3480156108a157600080fd5b50610985600480360360608110156108b857600080fd5b81019080803573ffffffffffffffffffffffffffffffffffffffff16906020019092919080359060200190929190803590602001906401000000008111156108ff57600080fd5b82018360208201111561091157600080fd5b8035906020019184600183028401116401000000008311171561093357600080fd5b91908080601f016020809104026020016040519081016040528093929190818152602001838380828437600081840152601f19601f820116905080830192505050505050509192919290505050611eb7565b604051808215151515815260200191505060405180910390f35b3480156109ab57600080fd5b506109b4612159565b005b3480156109c257600080fd5b50610a25600480360360408110156109d957600080fd5b81019080803573ffffffffffffffffffffffffffffffffffffffff169060200190929190803573ffffffffffffffffffffffffffffffffffffffff16906020019092919050505061251c565b6040518082815260200191505060405180910390f35b348015610a4757600080fd5b50610a8060048036036040811015610a5e57600080fd5b81019080803590602001909291908035151590602001909291905050506125a3565b604051808215151515815260200191505060405180910390f35b348015610aa657600080fd5b50610aaf612dbf565b604051808215151515815260200191505060405180910390f35b60038054600181600116156101000203166002900480601f016020809104026020016040519081016040528092919081815260200182805460018160011615610100020316600290048015610b5f5780601f10610b3457610100808354040283529160200191610b5f565b820191906000526020600020905b815481529060010190602001808311610b4257829003601f168201915b505050505081565b6000610b7b610b74612dd2565b8484612dda565b6001905092915050565b6000600254905090565b6000610b9c848484612fd1565b610c5d84610ba8612dd2565b610c5885604051806060016040528060288152602001613b1960289139600160008b73ffffffffffffffffffffffffffffffffffffffff1673ffffffffffffffffffffffffffffffffffffffff1681526020019081526020016000206000610c0e612dd2565b73ffffffffffffffffffffffffffffffffffffffff1673ffffffffffffffffffffffffffffffffffffffff168152602001908152602001600020546132929092919063ffffffff16565b612dda565b600190509392505050565b600960009054906101000a900473ffffffffffffffffffffffffffffffffffffffff1681565b600060011515600a60149054906101000a900460ff16151514610cfc576040517f08c379a000000000000000000000000000000000000000000000000000000000815260040180806020018281038252602d815260200180613a14602d913960400191505060405180910390fd5b6000600860009054906101000a900473ffffffffffffffffffffffffffffffffffffffff16905060008173ffffffffffffffffffffffffffffffffffffffff16634e69d5606040518163ffffffff1660e01b815260040160206040518083038186803b158015610d6b57600080fd5b505afa158015610d7f573d6000803e3d6000fd5b505050506040513d6020811015610d9557600080fd5b8101908080519060200190929190505050905060008162ffffff1614610e23576040517f08c379a00000000000000000000000000000000000000000000000000000000081526004018080602001828103825260198152602001807f4e6f7420696e2066756e6472616973696e67207374617475730000000000000081525060200191505060405180910390fd5b60008273ffffffffffffffffffffffffffffffffffffffff1663679aefce6040518163ffffffff1660e01b815260040160206040518083038186803b158015610e6b57600080fd5b505afa158015610e7f573d6000803e3d6000fd5b505050506040513d6020811015610e9557600080fd5b810190808051906020019092919050505090506000610ebd828761335290919063ffffffff16565b90506000600960009054906101000a900473ffffffffffffffffffffffffffffffffffffffff169050818173ffffffffffffffffffffffffffffffffffffffff1663dd62ed3e33306040518363ffffffff1660e01b8152600401808373ffffffffffffffffffffffffffffffffffffffff1673ffffffffffffffffffffffffffffffffffffffff1681526020018273ffffffffffffffffffffffffffffffffffffffff1673ffffffffffffffffffffffffffffffffffffffff1681526020019250505060206040518083038186803b158015610f9857600080fd5b505afa158015610fac573d6000803e3d6000fd5b505050506040513d6020811015610fc257600080fd5b81019080805190602001909291905050501015611047576040517f08c379a000000000000000000000000000000000000000000000000000000000815260040180806020018281038252600e8152602001807f4e6f7420656e6f7567682044414900000000000000000000000000000000000081525060200191505060405180910390fd5b60008173ffffffffffffffffffffffffffffffffffffffff166323b872dd3330866040518463ffffffff1660e01b8152600401808473ffffffffffffffffffffffffffffffffffffffff1673ffffffffffffffffffffffffffffffffffffffff1681526020018373ffffffffffffffffffffffffffffffffffffffff1673ffffffffffffffffffffffffffffffffffffffff1681526020018281526020019350505050602060405180830381600087803b15801561110457600080fd5b505af1158015611118573d6000803e3d6000fd5b505050506040513d602081101561112e57600080fd5b81019080805190602001909291905050509050806111b4576040517f08c379a000000000000000000000000000000000000000000000000000000000815260040180806020018281038252601f8152602001807f4572726f723a2046756e64205472616e73616374696f6e206661696c65642e0081525060200191505060405180910390fd5b6111be33896133d8565b8573ffffffffffffffffffffffffffffffffffffffff1663fc2937f98373ffffffffffffffffffffffffffffffffffffffff166370a08231306040518263ffffffff1660e01b8152600401808273ffffffffffffffffffffffffffffffffffffffff1673ffffffffffffffffffffffffffffffffffffffff16815260200191505060206040518083038186803b15801561125757600080fd5b505afa15801561126b573d6000803e3d6000fd5b505050506040513d602081101561128157600080fd5b81019080805190602001909291905050506040518263ffffffff1660e01b815260040180828152602001915050600060405180830381600087803b1580156112c857600080fd5b505af11580156112dc573d6000803e3d6000fd5b5050505060019650505050505050919050565b600460009054906101000a900460ff1681565b61130b3361359f565b600760009054906101000a900473ffffffffffffffffffffffffffffffffffffffff1673ffffffffffffffffffffffffffffffffffffffff163373ffffffffffffffffffffffffffffffffffffffff16146113ce576040517f08c379a000000000000000000000000000000000000000000000000000000000815260040180806020018281038252601b8152602001807f4572726f723a2043616c6c6572206973206e6f74206f776e65722e000000000081525060200191505060405180910390fd5b60001515600a60159054906101000a900460ff16151514611457576040517f08c379a000000000000000000000000000000000000000000000000000000000815260040180806020018281038252601c8152602001807f4c6f616e20636f6e747261637420697320616c7265616479207365740000000081525060200191505060405180910390fd5b80600a60006101000a81548173ffffffffffffffffffffffffffffffffffffffff021916908373ffffffffffffffffffffffffffffffffffffffff1602179055506001600a60156101000a81548160ff02191690831515021790555050565b6114bf3361359f565b600760009054906101000a900473ffffffffffffffffffffffffffffffffffffffff1673ffffffffffffffffffffffffffffffffffffffff163373ffffffffffffffffffffffffffffffffffffffff1614611582576040517f08c379a000000000000000000000000000000000000000000000000000000000815260040180806020018281038252601b8152602001807f4572726f723a2043616c6c6572206973206e6f74206f776e65722e000000000081525060200191505060405180910390fd5b60001515600a60149054906101000a900460ff161515146115ee576040517f08c379a0000000000000000000000000000000000000000000000000000000008152600401808060200182810382526024815260200180613a656024913960400191505060405180910390fd5b80600860006101000a81548173ffffffffffffffffffffffffffffffffffffffff021916908373ffffffffffffffffffffffffffffffffffffffff1602179055506001600a60146101000a81548160ff02191690831515021790555050565b60006116f661165a612dd2565b846116f1856001600061166b612dd2565b73ffffffffffffffffffffffffffffffffffffffff1673ffffffffffffffffffffffffffffffffffffffff16815260200190815260200160002060008973ffffffffffffffffffffffffffffffffffffffff1673ffffffffffffffffffffffffffffffffffffffff1681526020019081526020016000205461364590919063ffffffff16565b612dda565b6001905092915050565b600080600860009054906101000a900473ffffffffffffffffffffffffffffffffffffffff16905060008173ffffffffffffffffffffffffffffffffffffffff16634e69d5606040518163ffffffff1660e01b815260040160206040518083038186803b15801561177057600080fd5b505afa158015611784573d6000803e3d6000fd5b505050506040513d602081101561179a57600080fd5b810190808051906020019092919050505090508062ffffff167fad608a20e6a9ff33507861d1c1ce9dd0a385a7cb0b8a46e5900469e8d4c2029560405160405180910390a2809250505090565b600060011515600a60149054906101000a900460ff16151514611855576040517f08c379a000000000000000000000000000000000000000000000000000000000815260040180806020018281038252602d815260200180613a14602d913960400191505060405180910390fd5b6000600860009054906101000a900473ffffffffffffffffffffffffffffffffffffffff16905060008173ffffffffffffffffffffffffffffffffffffffff16634e69d5606040518163ffffffff1660e01b815260040160206040518083038186803b1580156118c457600080fd5b505afa1580156118d8573d6000803e3d6000fd5b505050506040513d60208110156118ee57600080fd5b8101908080519060200190929190505050905060028162ffffff161461197c576040517f08c379a000000000000000000000000000000000000000000000000000000000815260040180806020018281038252601a8152602001807f4e6f7420696e20646973747269627574696e672073746174757300000000000081525060200191505060405180910390fd5b60008273ffffffffffffffffffffffffffffffffffffffff1663679aefce6040518163ffffffff1660e01b815260040160206040518083038186803b1580156119c457600080fd5b505afa1580156119d8573d6000803e3d6000fd5b505050506040513d60208110156119ee57600080fd5b8101908080519060200190929190505050905084611a0b33611cad565b1015611a7f576040517f08c379a00000000000000000000000000000000000000000000000000000000081526004018080602001828103825260188152602001807f6e6f7420656e6f75676820746f6b656e20746f206275726e000000000000000081525060200191505060405180910390fd5b6000600960009054906101000a900473ffffffffffffffffffffffffffffffffffffffff1690506000611abb838861335290919063ffffffff16565b905060008273ffffffffffffffffffffffffffffffffffffffff1663a9059cbb33846040518363ffffffff1660e01b8152600401808373ffffffffffffffffffffffffffffffffffffffff1673ffffffffffffffffffffffffffffffffffffffff16815260200182815260200192505050602060405180830381600087803b158015611b4657600080fd5b505af1158015611b5a573d6000803e3d6000fd5b505050506040513d6020811015611b7057600080fd5b8101908080519060200190929190505050905080611bf6576040517f08c379a000000000000000000000000000000000000000000000000000000000815260040180806020018281038252601f8152602001807f4572726f723a204275726e205472616e73616374696f6e206661696c65642e0081525060200191505060405180910390fd5b611c0033896136cd565b60019650505050505050919050565b60068054600181600116156101000203166002900480601f016020809104026020016040519081016040528092919081815260200182805460018160011615610100020316600290048015611ca55780601f10611c7a57610100808354040283529160200191611ca5565b820191906000526020600020905b815481529060010190602001808311611c8857829003601f168201915b505050505081565b60008060008373ffffffffffffffffffffffffffffffffffffffff1673ffffffffffffffffffffffffffffffffffffffff168152602001908152602001600020549050919050565b600a60149054906101000a900460ff1681565b600760009054906101000a900473ffffffffffffffffffffffffffffffffffffffff1681565b60058054600181600116156101000203166002900480601f016020809104026020016040519081016040528092919081815260200182805460018160011615610100020316600290048015611dc45780601f10611d9957610100808354040283529160200191611dc4565b820191906000526020600020905b815481529060010190602001808311611da757829003601f168201915b505050505081565b6000611e8f611dd9612dd2565b84611e8a85604051806060016040528060258152602001613bd76025913960016000611e03612dd2565b73ffffffffffffffffffffffffffffffffffffffff1673ffffffffffffffffffffffffffffffffffffffff16815260200190815260200160002060008a73ffffffffffffffffffffffffffffffffffffffff1673ffffffffffffffffffffffffffffffffffffffff168152602001908152602001600020546132929092919063ffffffff16565b612dda565b6001905092915050565b6000611ead611ea6612dd2565b8484612fd1565b6001905092915050565b6000611ec38484610b67565b508373ffffffffffffffffffffffffffffffffffffffff163373ffffffffffffffffffffffffffffffffffffffff167f8c5be1e5ebec7d5bd14f71427d1e84f3dd0314c0f7b2291e5b200ac8c7c3b925856040518082815260200191505060405180910390a360008473ffffffffffffffffffffffffffffffffffffffff1633853086604051602401808573ffffffffffffffffffffffffffffffffffffffff1673ffffffffffffffffffffffffffffffffffffffff1681526020018481526020018373ffffffffffffffffffffffffffffffffffffffff1673ffffffffffffffffffffffffffffffffffffffff16815260200180602001828103825283818151815260200191508051906020019080838360005b83811015611ff3578082015181840152602081019050611fd8565b50505050905090810190601f1680156120205780820380516001836020036101000a031916815260200191505b50955050505050506040516020818303038152906040527f8f4ffcb1000000000000000000000000000000000000000000000000000000007bffffffffffffffffffffffffffffffffffffffffffffffffffffffff19166020820180517bffffffffffffffffffffffffffffffffffffffffffffffffffffffff83818316178352505050506040518082805190602001908083835b602083106120d857805182526020820191506020810190506020830392506120b5565b6001836020036101000a0380198251168184511680821785525050505050509050019150506000604051808303816000865af19150503d806000811461213a576040519150601f19603f3d011682016040523d82523d6000602084013e61213f565b606091505b505090508061214d57600080fd5b60019150509392505050565b6121623361359f565b600760009054906101000a900473ffffffffffffffffffffffffffffffffffffffff1673ffffffffffffffffffffffffffffffffffffffff163373ffffffffffffffffffffffffffffffffffffffff161415612226576040517f08c379a00000000000000000000000000000000000000000000000000000000081526004018080602001828103825260198152602001807f4572726f723a2043616c6c65722069732061206f776e65722e0000000000000081525060200191505060405180910390fd5b6000600a60009054906101000a900473ffffffffffffffffffffffffffffffffffffffff16905060008173ffffffffffffffffffffffffffffffffffffffff1663300be4fc336040518263ffffffff1660e01b8152600401808273ffffffffffffffffffffffffffffffffffffffff1673ffffffffffffffffffffffffffffffffffffffff168152602001915050602060405180830381600087803b1580156122ce57600080fd5b505af11580156122e2573d6000803e3d6000fd5b505050506040513d60208110156122f857600080fd5b810190808051906020019092919050505090506000600960009054906101000a900473ffffffffffffffffffffffffffffffffffffffff16905060008173ffffffffffffffffffffffffffffffffffffffff166323b872dd3330866040518463ffffffff1660e01b8152600401808473ffffffffffffffffffffffffffffffffffffffff1673ffffffffffffffffffffffffffffffffffffffff1681526020018373ffffffffffffffffffffffffffffffffffffffff1673ffffffffffffffffffffffffffffffffffffffff1681526020018281526020019350505050602060405180830381600087803b1580156123ef57600080fd5b505af1158015612403573d6000803e3d6000fd5b505050506040513d602081101561241957600080fd5b810190808051906020019092919050505090508061249f576040517f08c379a00000000000000000000000000000000000000000000000000000000081526004018080602001828103825260198152602001807f4572726f723a20444149205061796d656e74206661696c65640000000000000081525060200191505060405180910390fd5b7fec0b3eb61ab09b333a650c12b00e9582e9cc5c9913d986f488e1dd49fcd78b5981338560405180841515151581526020018373ffffffffffffffffffffffffffffffffffffffff1673ffffffffffffffffffffffffffffffffffffffff168152602001828152602001935050505060405180910390a150505050565b6000600160008473ffffffffffffffffffffffffffffffffffffffff1673ffffffffffffffffffffffffffffffffffffffff16815260200190815260200160002060008373ffffffffffffffffffffffffffffffffffffffff1673ffffffffffffffffffffffffffffffffffffffff16815260200190815260200160002054905092915050565b60006125ae3361359f565b600760009054906101000a900473ffffffffffffffffffffffffffffffffffffffff1673ffffffffffffffffffffffffffffffffffffffff163373ffffffffffffffffffffffffffffffffffffffff1614612671576040517f08c379a000000000000000000000000000000000000000000000000000000000815260040180806020018281038252601b8152602001807f4572726f723a2043616c6c6572206973206e6f74206f776e65722e000000000081525060200191505060405180910390fd5b600115158215151415612c91576001612688611700565b62ffffff1614612700576040517f08c379a00000000000000000000000000000000000000000000000000000000081526004018080602001828103825260168152602001807f537461747573206973206e6f74206465706c6f7965640000000000000000000081525060200191505060405180910390fd5b6000600a60009054906101000a900473ffffffffffffffffffffffffffffffffffffffff16905060008173ffffffffffffffffffffffffffffffffffffffff1663df8e0aef86866040518363ffffffff1660e01b8152600401808381526020018215151515815260200192505050602060405180830381600087803b15801561278857600080fd5b505af115801561279c573d6000803e3d6000fd5b505050506040513d60208110156127b257600080fd5b8101908080519060200190929190505050905060068160ff1614612821576040517f08c379a0000000000000000000000000000000000000000000000000000000008152600401808060200182810382526027815260200180613ad16027913960400191505060405180910390fd5b60008273ffffffffffffffffffffffffffffffffffffffff1663cdb6aa7b876040518263ffffffff1660e01b81526004018082815260200191505060206040518083038186803b15801561287457600080fd5b505afa158015612888573d6000803e3d6000fd5b505050506040513d602081101561289e57600080fd5b8101908080519060200190929190505050905060608373ffffffffffffffffffffffffffffffffffffffff16636517579c886040518263ffffffff1660e01b81526004018082815260200191505060006040518083038186803b15801561290457600080fd5b505afa158015612918573d6000803e3d6000fd5b505050506040513d6000823e3d601f19601f82011682018060405250602081101561294257600080fd5b810190808051604051939291908464010000000082111561296257600080fd5b8382019150602082018581111561297857600080fd5b825186602082028301116401000000008211171561299557600080fd5b8083526020830192505050908051906020019060200280838360005b838110156129cc5780820151818401526020810190506129b1565b50505050905001604052505050905060008473ffffffffffffffffffffffffffffffffffffffff16632cb64233846040518263ffffffff1660e01b81526004018082815260200191505060206040518083038186803b158015612a2e57600080fd5b505afa158015612a42573d6000803e3d6000fd5b505050506040513d6020811015612a5857600080fd5b810190808051906020019092919050505090506000600960009054906101000a900473ffffffffffffffffffffffffffffffffffffffff16905060008173ffffffffffffffffffffffffffffffffffffffff1663a9059cbb85600081518110612abd57fe5b6020026020010151856040518363ffffffff1660e01b8152600401808373ffffffffffffffffffffffffffffffffffffffff1673ffffffffffffffffffffffffffffffffffffffff16815260200182815260200192505050602060405180830381600087803b158015612b2f57600080fd5b505af1158015612b43573d6000803e3d6000fd5b505050506040513d6020811015612b5957600080fd5b8101908080519060200190929190505050905080612bc2576040517f08c379a0000000000000000000000000000000000000000000000000000000008152600401808060200182810382526024815260200180613a416024913960400191505060405180910390fd5b6000612be185600081518110612bd457fe5b6020026020010151613891565b90506000612bee33613891565b90506000612bfb30613891565b90507fb4dc39839dc2c5a77fc4d23c47509835864b99885a248e0f43abfa07206a0e1083838360405180848152602001838152602001828152602001935050505060405180910390a17fc4a58f9bea5511f4a74c2106d97e99a57eff171588a4747121cae6f4ae1bc8d284604051808215151515815260200191505060405180910390a1839a5050505050505050505050612db9565b6000600a60009054906101000a900473ffffffffffffffffffffffffffffffffffffffff16905060008173ffffffffffffffffffffffffffffffffffffffff1663df8e0aef86866040518363ffffffff1660e01b8152600401808381526020018215151515815260200192505050602060405180830381600087803b158015612d1957600080fd5b505af1158015612d2d573d6000803e3d6000fd5b505050506040513d6020811015612d4357600080fd5b8101908080519060200190929190505050905060078160ff1614612db2576040517f08c379a000000000000000000000000000000000000000000000000000000000815260040180806020018281038252602c815260200180613b41602c913960400191505060405180910390fd5b6000925050505b92915050565b600a60159054906101000a900460ff1681565b600033905090565b600073ffffffffffffffffffffffffffffffffffffffff168373ffffffffffffffffffffffffffffffffffffffff161415612e60576040517f08c379a0000000000000000000000000000000000000000000000000000000008152600401808060200182810382526024815260200180613bb36024913960400191505060405180910390fd5b600073ffffffffffffffffffffffffffffffffffffffff168273ffffffffffffffffffffffffffffffffffffffff161415612ee6576040517f08c379a0000000000000000000000000000000000000000000000000000000008152600401808060200182810382526022815260200180613a896022913960400191505060405180910390fd5b80600160008573ffffffffffffffffffffffffffffffffffffffff1673ffffffffffffffffffffffffffffffffffffffff16815260200190815260200160002060008473ffffffffffffffffffffffffffffffffffffffff1673ffffffffffffffffffffffffffffffffffffffff168152602001908152602001600020819055508173ffffffffffffffffffffffffffffffffffffffff168373ffffffffffffffffffffffffffffffffffffffff167f8c5be1e5ebec7d5bd14f71427d1e84f3dd0314c0f7b2291e5b200ac8c7c3b925836040518082815260200191505060405180910390a3505050565b600073ffffffffffffffffffffffffffffffffffffffff168373ffffffffffffffffffffffffffffffffffffffff161415613057576040517f08c379a0000000000000000000000000000000000000000000000000000000008152600401808060200182810382526025815260200180613b8e6025913960400191505060405180910390fd5b600073ffffffffffffffffffffffffffffffffffffffff168273ffffffffffffffffffffffffffffffffffffffff1614156130dd576040517f08c379a00000000000000000000000000000000000000000000000000000000081526004018080602001828103825260238152602001806139cf6023913960400191505060405180910390fd5b6130e883838361397f565b61315381604051806060016040528060268152602001613aab602691396000808773ffffffffffffffffffffffffffffffffffffffff1673ffffffffffffffffffffffffffffffffffffffff168152602001908152602001600020546132929092919063ffffffff16565b6000808573ffffffffffffffffffffffffffffffffffffffff1673ffffffffffffffffffffffffffffffffffffffff168152602001908152602001600020819055506131e6816000808573ffffffffffffffffffffffffffffffffffffffff1673ffffffffffffffffffffffffffffffffffffffff1681526020019081526020016000205461364590919063ffffffff16565b6000808473ffffffffffffffffffffffffffffffffffffffff1673ffffffffffffffffffffffffffffffffffffffff168152602001908152602001600020819055508173ffffffffffffffffffffffffffffffffffffffff168373ffffffffffffffffffffffffffffffffffffffff167fddf252ad1be2c89b69c2b068fc378daa952ba7f163c4a11628f55a4df523b3ef836040518082815260200191505060405180910390a3505050565b600083831115829061333f576040517f08c379a00000000000000000000000000000000000000000000000000000000081526004018080602001828103825283818151815260200191508051906020019080838360005b838110156133045780820151818401526020810190506132e9565b50505050905090810190601f1680156133315780820380516001836020036101000a031916815260200191505b509250505060405180910390fd5b5060008385039050809150509392505050565b60008083141561336557600090506133d2565b600082840290508284828161337657fe5b04146133cd576040517f08c379a0000000000000000000000000000000000000000000000000000000008152600401808060200182810382526021815260200180613af86021913960400191505060405180910390fd5b809150505b92915050565b600073ffffffffffffffffffffffffffffffffffffffff168273ffffffffffffffffffffffffffffffffffffffff16141561347b576040517f08c379a000000000000000000000000000000000000000000000000000000000815260040180806020018281038252601f8152602001807f45524332303a206d696e7420746f20746865207a65726f20616464726573730081525060200191505060405180910390fd5b6134876000838361397f565b61349c8160025461364590919063ffffffff16565b6002819055506134f3816000808573ffffffffffffffffffffffffffffffffffffffff1673ffffffffffffffffffffffffffffffffffffffff1681526020019081526020016000205461364590919063ffffffff16565b6000808473ffffffffffffffffffffffffffffffffffffffff1673ffffffffffffffffffffffffffffffffffffffff168152602001908152602001600020819055508173ffffffffffffffffffffffffffffffffffffffff16600073ffffffffffffffffffffffffffffffffffffffff167fddf252ad1be2c89b69c2b068fc378daa952ba7f163c4a11628f55a4df523b3ef836040518082815260200191505060405180910390a35050565b600073ffffffffffffffffffffffffffffffffffffffff168173ffffffffffffffffffffffffffffffffffffffff161415613642576040517f08c379a000000000000000000000000000000000000000000000000000000000815260040180806020018281038252601f8152602001807f4572726f723a2055736572206973206f66207a65726f20616464726573732e0081525060200191505060405180910390fd5b50565b6000808284019050838110156136c3576040517f08c379a000000000000000000000000000000000000000000000000000000000815260040180806020018281038252601b8152602001807f536166654d6174683a206164646974696f6e206f766572666c6f77000000000081525060200191505060405180910390fd5b8091505092915050565b600073ffffffffffffffffffffffffffffffffffffffff168273ffffffffffffffffffffffffffffffffffffffff161415613753576040517f08c379a0000000000000000000000000000000000000000000000000000000008152600401808060200182810382526021815260200180613b6d6021913960400191505060405180910390fd5b61375f8260008361397f565b6137ca816040518060600160405280602281526020016139f2602291396000808673ffffffffffffffffffffffffffffffffffffffff1673ffffffffffffffffffffffffffffffffffffffff168152602001908152602001600020546132929092919063ffffffff16565b6000808473ffffffffffffffffffffffffffffffffffffffff1673ffffffffffffffffffffffffffffffffffffffff168152602001908152602001600020819055506138218160025461398490919063ffffffff16565b600281905550600073ffffffffffffffffffffffffffffffffffffffff168273ffffffffffffffffffffffffffffffffffffffff167fddf252ad1be2c89b69c2b068fc378daa952ba7f163c4a11628f55a4df523b3ef836040518082815260200191505060405180910390a35050565b600080600960009054906101000a900473ffffffffffffffffffffffffffffffffffffffff16905060008173ffffffffffffffffffffffffffffffffffffffff166370a08231856040518263ffffffff1660e01b8152600401808273ffffffffffffffffffffffffffffffffffffffff1673ffffffffffffffffffffffffffffffffffffffff16815260200191505060206040518083038186803b15801561393857600080fd5b505afa15801561394c573d6000803e3d6000fd5b505050506040513d602081101561396257600080fd5b810190808051906020019092919050505090508092505050919050565b505050565b60006139c683836040518060400160405280601e81526020017f536166654d6174683a207375627472616374696f6e206f766572666c6f770000815250613292565b90509291505056fe45524332303a207472616e7366657220746f20746865207a65726f206164647265737345524332303a206275726e20616d6f756e7420657863656564732062616c616e63654f776e657220686173206e6f7420736574207368617265486f6c646572436f6e747261637420616464726573734572726f723a2046756e64204c6f616e207472616e73616374696f6e206661696c65642e536861726520686f6c64657220636f6e747261637420697320616c72656164792073657445524332303a20617070726f766520746f20746865207a65726f206164647265737345524332303a207472616e7366657220616d6f756e7420657863656564732062616c616e636546756e64204c6f616e20737461747573206e6f74206368616e67656420746f2066756e6465642e536166654d6174683a206d756c7469706c69636174696f6e206f766572666c6f7745524332303a207472616e7366657220616d6f756e74206578636565647320616c6c6f77616e636546756e64204c6f616e20737461747573206e6f74206368616e67656420746f20274e6f742066756e6465642745524332303a206275726e2066726f6d20746865207a65726f206164647265737345524332303a207472616e736665722066726f6d20746865207a65726f206164647265737345524332303a20617070726f76652066726f6d20746865207a65726f206164647265737345524332303a2064656372656173656420616c6c6f77616e63652062656c6f77207a65726fa2646970667358221220a8e10ad547630d9208610d37582968efdf2b171a9006f43e8b7ad2a75587517364736f6c63430006040033",
  "source": "pragma solidity ^0.6.0;\nimport \"./ERC20.sol\";\n\n\ninterface daiInterface {\n    function balanceOf(address) external view returns (uint256);\n\n    function transfer(address, uint256) external returns (bool);\n\n    function transferFrom(address sender, address recipient, uint256 amount)\n        external\n        returns (bool);\n\n    function allowance(address owner, address spender)\n        external\n        view\n        returns (uint256);\n}\n\n\ninterface shareHolderInterface {\n    function getStatus() external view returns (uint24);\n\n    function getRate() external view returns (uint256);\n\n    function setDeployable(uint256 amt) external;\n}\n\n\ninterface loanContractInterface {\n    function fundLoan(bytes32 _credId, bool _yesNo) external returns (uint8);\n\n    function getApprovedLoan(bytes32 _loanId) external view returns (uint256);\n\n    function getPayment(bytes32 _loanId)\n        external\n        view\n        returns (uint256[] memory, uint8[] memory, uint256, uint256);\n\n    function getUser(bytes32 _credId) external view returns (address[] memory);\n\n    function getActiveLoan(bytes32 _credId) external view returns (bytes32);\n\n    function getCredId(address _address) external view returns (bytes32);\n\n    function makePayment(address _userAddress) external returns (uint256);\n}\n\n\n//name this contract whatever you'd like\ncontract CredToken is ERC20 {\n    fallback() external {\n        revert();\n    }\n\n    receive() external payable {\n        revert();\n    }\n\n    /* Public variables of the token */\n\n    /*\n    NOTE:\n    The following variables are OPTIONAL vanities. One does not have to include them.\n    They allow one to customise the token contract & in no way influences the core functionality.\n    Some wallets/interfaces might not even bother to look at this information.\n    */\n    string public name; //fancy name: eg Simon Bucks\n    uint8 public decimals; //How many decimals to show. ie. There could 1000 base units with 3 decimals. Meaning 0.980 SBX = 980 base units. It's like comparing 1 wei to 1 ether.\n    string public symbol; //An identifier: eg SBX\n    string public version = \"H1.0\"; //human 0.1 standard. Just an arbitrary versioning scheme.\n    address public owner;\n    address private shareHolderContract;\n    address public daiAddress;\n    address private loanContract;\n    bool public isSetShareHolderContract;\n    bool public isSetLoanContract;\n    event LogBalances(\n        uint256 updatedUserBal,\n        uint256 updatedAdminBal,\n        uint256 updatedContractBal\n    ); //  Log event with User bal, admin's bal, LoanContract's balance after funding the loan\n    event LogTransferStatus(bool transferStatus); //  Log event with the transfer of funds status from contract to user account\n    event LogStatus(uint24 indexed status); //  Log event for deployed status\n    event LogPaymentStatus(\n        bool status,\n        address userAddress,\n        uint256 monthlyPayment\n    ); // Log event with Payment status, user's address and monthly Payment\n\n    //\n    // CHANGE THESE VALUES FOR YOUR TOKEN\n    //\n\n    //make sure this function name matches the contract name above. So if you're token is called TutorialToken, make sure the //contract name above is also TutorialToken instead of ERC20Token\n    constructor(address _daiAddress) public {\n        name = \"CRED TOKEN\"; // Set the name for display purposes\n        decimals = 0; // Amount of decimals for display purposes\n        symbol = \"CRED\"; // Set the symbol for display purposes\n        owner = msg.sender;\n        daiAddress = _daiAddress;\n    }\n\n    function getStatus() public returns (uint24) {\n        // calling `getStatus` function of the shareHolder contract for getting the status\n        shareHolderInterface shareHolderInstance = shareHolderInterface(\n            shareHolderContract\n        ); //  creating the instance of deployed shareHolder contract\n        uint24 receivedStatus = shareHolderInstance.getStatus(); //  Get deployed status\n        emit LogStatus(receivedStatus); //  Emit event of the received status\n        return receivedStatus;\n    }\n\n    function fundLoan(bytes32 _credId, bool _yesNo)\n        public\n        _onlyOwner()\n        returns (bool _fundstatus)\n    {\n        if (_yesNo == true) {\n            require(getStatus() == 1, \"Status is not deployed\"); //  Check the status is deployed or not\n\n            loanContractInterface loanContractInstance = loanContractInterface(\n                loanContract\n            ); //  Get the instance of the LoanContract\n            uint8 fundLoanStatus = loanContractInstance.fundLoan(\n                _credId,\n                _yesNo\n            ); //  Get the fundLoanStatus from the LoanContract and calculate the monthly payment and total payment also\n            require(\n                fundLoanStatus == 6,\n                \"Fund Loan status not changed to funded.\"\n            ); //  Check fundLoanStatus is funded or not. (Doing this before transferring funds to prevent re-entrancy)\n\n            bytes32 _loanId = loanContractInstance.getActiveLoan(_credId); //  Get the loanId of the loan\n            address[] memory userAddresses = loanContractInstance.getUser(\n                _credId\n            ); //  User address to whom fund the loan\n            uint256 principalAmtApproved = loanContractInstance.getApprovedLoan(\n                _loanId\n            );\n\n            // calling `transfer` function of the DAI contract for funding loan amount to user\n            daiInterface daiContractInstance = daiInterface(daiAddress); //  creating the instance of deployed DAI contract\n\n            bool fundStatus = daiContractInstance.transfer(\n                userAddresses[0],\n                principalAmtApproved\n            ); //  transfer DAI from contract to user account\n            require(fundStatus, \"Error: Fund Loan transaction failed.\"); //  Check fund loan transaction status\n            uint256 userBal = getWadBalance(userAddresses[0]); //  Get user's balance\n            uint256 contractOwnerBal = getWadBalance(msg.sender); //  Get the contract owner's balance\n            uint256 contractBal = getWadBalance(address(this)); //  Get contract's balance\n            emit LogBalances(userBal, contractOwnerBal, contractBal); //  Emit event with balances of user, owner and credToken contract\n            emit LogTransferStatus(fundStatus); //  Emit the event with  the transfer funds status from credToken contract to user\n\n            return (fundStatus);\n        } else {\n            loanContractInterface loanContractInstance = loanContractInterface(\n                loanContract\n            );\n            uint8 fundLoanStatus = loanContractInstance.fundLoan(\n                _credId,\n                _yesNo\n            );\n            require(\n                fundLoanStatus == 7,\n                \"Fund Loan status not changed to 'Not funded'\"\n            );\n            return false;\n        }\n    }\n\n    /// @notice Get the balance in wad for the address being passed as input\n    /// @param _address Address to query balance for\n    /// @return uint Balance of the user/admin/contract\n    function getWadBalance(address _address) internal view returns (uint256) {\n        // emit LogDaiContractAddress(daiAddress);\n\n        // calling `balanceOf` function of the DAI contract for getting the balance\n        daiInterface daiContractInstance = daiInterface(daiAddress); //  creating the instance of deployed DAI contract\n        uint256 wadBalance = daiContractInstance.balanceOf(_address);\n        return wadBalance;\n    }\n\n    function validateCallerAddress(address _address) internal pure {\n        require(_address != address(0), \"Error: User is of zero address.\");\n    }\n\n    /// @notice Modifier to check user is not Owner\n    modifier _notOwner() {\n        validateCallerAddress(msg.sender); //  Validate the caller's address\n        require(!(msg.sender == owner), \"Error: Caller is a owner.\");\n        _;\n    }\n\n    modifier _onlyOwner() {\n        validateCallerAddress(msg.sender); //  Validate the caller's address\n        require(msg.sender == owner, \"Error: Caller is not owner.\");\n        _;\n    }\n    modifier _onlyShareHolderContract() {\n        validateCallerAddress(msg.sender); //  Validate the caller's address\n        require(\n            isSetShareHolderContract == true,\n            \"Haven't set Share Holder Contract yet\"\n        );\n        require(\n            msg.sender == shareHolderContract,\n            \"Error: Caller is not shareHolderContract.\"\n        );\n        _;\n    }\n\n    function setLoanContract(address _loanContractaddress) public _onlyOwner() {\n        require(isSetLoanContract == false, \"Loan contract is already set\");\n        loanContract = _loanContractaddress;\n        isSetLoanContract = true;\n    }\n\n    function setShareHolderContract(address _address) public _onlyOwner() {\n        require(\n            isSetShareHolderContract == false,\n            \"Share holder contract is already set\"\n        );\n        shareHolderContract = _address;\n        isSetShareHolderContract = true;\n    }\n\n    function buyToken(uint256 value) public returns (bool) {\n        require(\n            isSetShareHolderContract == true,\n            \"Owner has not set shareHolderContract address\"\n        );\n        shareHolderInterface shareHolderInstance = shareHolderInterface(\n            shareHolderContract\n        );\n        uint24 status = shareHolderInstance.getStatus();\n        require(status == 0, \"Not in fundraising status\");\n        uint256 rate = shareHolderInstance.getRate();\n        uint256 appropriateDai = value.mul(rate);\n        daiInterface dai = daiInterface(daiAddress);\n        require(\n            dai.allowance(msg.sender, address(this)) >= appropriateDai,\n            \"Not enough DAI\"\n        );\n        bool isSuccess = dai.transferFrom(\n            msg.sender,\n            address(this),\n            appropriateDai\n        );\n        require(isSuccess, \"Error: Fund Transaction failed.\");\n        _mint(msg.sender, value);\n        shareHolderInstance.setDeployable(dai.balanceOf(address(this)));\n        return true;\n    }\n\n    function withdrawToken(uint256 value) public returns (bool) {\n        require(\n            isSetShareHolderContract == true,\n            \"Owner has not set shareHolderContract address\"\n        );\n        shareHolderInterface shareHolderInstance = shareHolderInterface(\n            shareHolderContract\n        );\n        uint24 status = shareHolderInstance.getStatus();\n        require(status == 2, \"Not in distributing status\");\n        uint256 rate = shareHolderInstance.getRate();\n        require(balanceOf(msg.sender) >= value, \"not enough token to burn\");\n        daiInterface dai = daiInterface(daiAddress);\n        uint256 appropriateDai = value.mul(rate);\n        bool isSuccess = dai.transfer(msg.sender, appropriateDai);\n        require(isSuccess, \"Error: Burn Transaction failed.\");\n        _burn(msg.sender, value);\n        return true;\n    }\n\n    /* Approves and then calls the receiving contract */\n    function approveAndCall(\n        address _spender,\n        uint256 _value,\n        bytes memory _extraData\n    ) public returns (bool) {\n        approve(_spender, _value);\n        emit Approval(msg.sender, _spender, _value);\n\n        //call the receiveApproval function on the contract you want to be notified. This crafts the function signature manually so one doesn't have to include a contract in here just for this.\n        //receiveApproval(address _from, uint256 _value, address _tokenContract, bytes _extraData)\n        //it is assumed that when does this that the call *should* succeed, otherwise one would use vanilla approve instead.\n        (bool success, ) = _spender.call(\n            abi.encodeWithSignature(\n                \"receiveApproval(address,uint256,address,bytes)\",\n                msg.sender,\n                _value,\n                this,\n                _extraData\n            )\n        );\n        if (!success) {\n            revert();\n        }\n\n        return true;\n    }\n\n    function makePayment() public _notOwner() {\n        loanContractInterface loanContractInstance = loanContractInterface(\n            loanContract\n        ); //  Get the instance of the LoanContract\n        uint256 _monthlyPayment = loanContractInstance.makePayment(msg.sender);\n\n        // calling `transferFrom` function of the DAI contract for accepting payment from user to the contract wallet\n        daiInterface daiContractInstance = daiInterface(daiAddress); //  creating the instance of deployed DAI contract\n        bool paymentStatus = daiContractInstance.transferFrom(\n            msg.sender,\n            address(this),\n            _monthlyPayment\n        ); // Payment is made to contract wallet\n        require(paymentStatus, \"Error: DAI Payment failed\"); // The transcation is reverted if the payment status is false\n        emit LogPaymentStatus(paymentStatus, msg.sender, _monthlyPayment); //  Emit the event with payment status  and user's address and monthly payment made\n    }\n}\n",
  "sourcePath": "/Users/guptaji/Documents/Blockchain Development/GBC (T175)/2nd Sem./dapp2/dapp2_project/dappII_project_ETT/eth-side/contracts/credToken.sol",
  "compiler": {
    "name": "solc",
    "version": "0.6.4+commit.1dca32f3.Emscripten.clang"
  },
  "schemaVersion": "3.0.21",
  "updatedAt": "2020-04-05T17:15:41.001Z",
  "networkType": "ethereum",
  "devdoc": {
    "methods": {
      "allowance(address,address)": {
        "details": "See {IERC20-allowance}."
      },
      "approve(address,uint256)": {
        "details": "See {IERC20-approve}.     * Requirements:     * - `spender` cannot be the zero address."
      },
      "balanceOf(address)": {
        "details": "See {IERC20-balanceOf}."
      },
      "decreaseAllowance(address,uint256)": {
        "details": "Atomically decreases the allowance granted to `spender` by the caller.     * This is an alternative to {approve} that can be used as a mitigation for problems described in {IERC20-approve}.     * Emits an {Approval} event indicating the updated allowance.     * Requirements:     * - `spender` cannot be the zero address. - `spender` must have allowance for the caller of at least `subtractedValue`."
      },
      "increaseAllowance(address,uint256)": {
        "details": "Atomically increases the allowance granted to `spender` by the caller.     * This is an alternative to {approve} that can be used as a mitigation for problems described in {IERC20-approve}.     * Emits an {Approval} event indicating the updated allowance.     * Requirements:     * - `spender` cannot be the zero address."
      },
      "totalSupply()": {
        "details": "See {IERC20-totalSupply}."
      },
      "transfer(address,uint256)": {
        "details": "See {IERC20-transfer}.     * Requirements:     * - `recipient` cannot be the zero address. - the caller must have a balance of at least `amount`."
      },
      "transferFrom(address,address,uint256)": {
        "details": "See {IERC20-transferFrom}.     * Emits an {Approval} event indicating the updated allowance. This is not required by the EIP. See the note at the beginning of {ERC20};     * Requirements: - `sender` and `recipient` cannot be the zero address. - `sender` must have a balance of at least `amount`. - the caller must have allowance for `sender`'s tokens of at least `amount`."
      }
    }
  },
  "userdoc": {
    "methods": {}
  }
}